{
  "contractName": "DappTokenSale",
  "abi": [
    {
      "constant": true,
      "inputs": [],
      "name": "tokenSold",
      "outputs": [
        {
          "name": "",
          "type": "uint256"
        }
      ],
      "payable": false,
      "stateMutability": "view",
      "type": "function"
    },
    {
      "constant": true,
      "inputs": [],
      "name": "tokenContract",
      "outputs": [
        {
          "name": "",
          "type": "address"
        }
      ],
      "payable": false,
      "stateMutability": "view",
      "type": "function"
    },
    {
      "constant": true,
      "inputs": [],
      "name": "tokenPrice",
      "outputs": [
        {
          "name": "",
          "type": "uint256"
        }
      ],
      "payable": false,
      "stateMutability": "view",
      "type": "function"
    },
    {
      "constant": true,
      "inputs": [],
      "name": "deneme",
      "outputs": [
        {
          "name": "",
          "type": "uint256"
        }
      ],
      "payable": false,
      "stateMutability": "view",
      "type": "function"
    },
    {
      "constant": true,
      "inputs": [],
      "name": "admin",
      "outputs": [
        {
          "name": "",
          "type": "address"
        }
      ],
      "payable": false,
      "stateMutability": "view",
      "type": "function"
    },
    {
      "inputs": [
        {
          "name": "_tokenContract",
          "type": "address"
        },
        {
          "name": "_tokenPrice",
          "type": "uint256"
        }
      ],
      "payable": false,
      "stateMutability": "nonpayable",
      "type": "constructor"
    },
    {
      "anonymous": false,
      "inputs": [
        {
          "indexed": false,
          "name": "_buyer",
          "type": "address"
        },
        {
          "indexed": false,
          "name": "_amount",
          "type": "uint256"
        }
      ],
      "name": "Sell",
      "type": "event"
    },
    {
      "constant": false,
      "inputs": [
        {
          "name": "_numberOfTokens",
          "type": "uint256"
        }
      ],
      "name": "buyTokens",
      "outputs": [],
      "payable": true,
      "stateMutability": "payable",
      "type": "function"
    },
    {
      "constant": false,
      "inputs": [],
      "name": "endSale",
      "outputs": [],
      "payable": false,
      "stateMutability": "nonpayable",
      "type": "function"
    }
  ],
  "bytecode": "0x608060405234801561001057600080fd5b5060405160408061052883398101604052805160209091015160008054600160a060020a0319908116331790915560018054600160a060020a0390941693909116929092179091556002556104be8061006a6000396000f3006080604052600436106100825763ffffffff7c01000000000000000000000000000000000000000000000000000000006000350416633610724e8114610087578063380d831b14610094578063519ee19e146100a957806355a373d6146100d05780637ff9b59614610101578063e66b18ae14610116578063f851a4401461012b575b600080fd5b610092600435610140565b005b3480156100a057600080fd5b506100926102dd565b3480156100b557600080fd5b506100be610434565b60408051918252519081900360200190f35b3480156100dc57600080fd5b506100e561043a565b60408051600160a060020a039092168252519081900360200190f35b34801561010d57600080fd5b506100be610449565b34801561012257600080fd5b506100be61044f565b34801561013757600080fd5b506100e5610455565b61014c81600254610464565b341461015757600080fd5b600154604080517f70a0823100000000000000000000000000000000000000000000000000000000815230600482015290518392600160a060020a0316916370a082319160248083019260209291908290030181600087803b1580156101bc57600080fd5b505af11580156101d0573d6000803e3d6000fd5b505050506040513d60208110156101e657600080fd5b505110156101f357600080fd5b600154604080517fa9059cbb000000000000000000000000000000000000000000000000000000008152336004820152602481018490529051600160a060020a039092169163a9059cbb916044808201926020929091908290030181600087803b15801561026057600080fd5b505af1158015610274573d6000803e3d6000fd5b505050506040513d602081101561028a57600080fd5b5051151561029757600080fd5b6003805482019055604080513381526020810183905281517f5e5e995ce3133561afceaa51a9a154d5db228cd7525d34df5185582c18d3df09929181900390910190a150565b600054600160a060020a031633146102f457600080fd5b60015460008054604080517f70a082310000000000000000000000000000000000000000000000000000000081523060048201529051600160a060020a039485169463a9059cbb9493169285926370a082319260248083019360209383900390910190829087803b15801561036857600080fd5b505af115801561037c573d6000803e3d6000fd5b505050506040513d602081101561039257600080fd5b5051604080517c010000000000000000000000000000000000000000000000000000000063ffffffff8616028152600160a060020a03909316600484015260248301919091525160448083019260209291908290030181600087803b1580156103fa57600080fd5b505af115801561040e573d6000803e3d6000fd5b505050506040513d602081101561042457600080fd5b5051151561043157600080fd5b30ff5b60035481565b600154600160a060020a031681565b60025481565b60045481565b600054600160a060020a031681565b600081158061048157505080820282828281151561047e57fe5b04145b151561048c57600080fd5b929150505600a165627a7a72305820f3deb96812d529357fc8bb24ea8efba183d3007b7e538171cf6c983568ae6e180029",
  "source": "pragma solidity ^0.4.2;\r\n\r\nimport \"./DappToken.sol\";\r\n\r\ncontract DappTokenSale{\r\n\r\n    address public admin;\r\n    DappToken public tokenContract;\r\n    uint256 public tokenPrice;\r\n    uint256 public tokenSold;\r\n\r\n    uint256 public deneme;\r\n\r\n    event Sell(address _buyer, uint256 _amount);\r\n\r\n    constructor(DappToken _tokenContract,uint256 _tokenPrice) public {\r\n        admin = msg.sender;\r\n        tokenContract = _tokenContract;\r\n        tokenPrice = _tokenPrice;\r\n\r\n    }  \r\n\r\n    function mulitply(uint256 x, uint256 y) internal pure returns(uint256 z){\r\n        require(y == 0 || (z=x*y) / y == x);\r\n    }\r\n\r\n    // Buy Tokens\r\n    function buyTokens(uint256 _numberOfTokens) public payable {    \r\n\r\n        require(msg.value == mulitply(_numberOfTokens , tokenPrice));\r\n        require(tokenContract.balanceOf(address(this)) >=_numberOfTokens );\r\n        require(tokenContract.transfer(msg.sender,_numberOfTokens));\r\n        \r\n        tokenSold += _numberOfTokens;\r\n\r\n        emit Sell(msg.sender, _numberOfTokens);\r\n\r\n    }\r\n\r\n\r\n    // Ending token sale\r\n    function endSale() public {\r\n        require(msg.sender == admin);\r\n        require(tokenContract.transfer(admin, tokenContract.balanceOf(address(this))));\r\n        selfdestruct(address(this));\r\n    }\r\n\r\n\r\n\r\n\r\n}",
  "sourcePath": "C:\\Users\\aliih\\Desktop\\ihsan\\BlockChain\\udemy\\token\\erc20\\DappToken\\contracts\\DappTokenSale.sol",
  "compiler": {
    "name": "solc",
    "version": "0.4.26+commit.4563c3fc.Emscripten.clang"
  },
  "schemaVersion": "3.4.16",
  "updatedAt": "2023-09-23T04:41:15.302Z",
  "networkType": "ethereum",
  "devdoc": {
    "methods": {}
  },
  "userdoc": {
    "methods": {}
  }
}